:100000000C9492000C94BA000C94BA000C94BA00B0
:100010000C94BA000C94BA000C94BA000C94BA0078
:100020000C94BA000C94BA000C94BA000C94BA0068
:100030000C94BA000C94BA000C94BA000C94BA0058
:100040000C9429030C94BA000C9499030C94730338
:100050000C94BA000C94BA000C94BA000C94BA0038
:100060000C94BA000C94BA004D6F746F72206861E2
:100070007A69722E004375727461696E4D6F647592
:100080006C652076302E31202D204261736C6979A9
:100090006F722E2E2E000000000023002600290083
:1000A000E29AA0EFB88F204D4F544F522048415450
:1000B0004121004672656E2100476572692E2E2E21
:1000C000004672656E2100C4B06C6572692E2E2EDA
:1000D0000000000000240027002A00000000002586
:1000E0000028002B00040404040404040402020297
:1000F0000202020303030303030102040810204069
:1001000080010204081020010204081020000000F1
:1001100008000201000003040700000000000000C6
:100120000000CB0311241FBECFEFD8E0DEBFCDBF50
:1001300011E0A0E0B1E0EEE8FAE002C005900D9217
:10014000A631B107D9F721E0A6E1B1E001C01D92C7
:10015000A03CB207E1F710E0C2E9D0E004C021976B
:10016000FE010E943F05C139D107C9F70E94020470
:100170000C9445050C940000833081F028F4813004
:1001800099F08230A9F008958730A9F08830C9F03D
:100190008430B1F4809180008F7D03C08091800015
:1001A0008F7780938000089584B58F7784BD0895FC
:1001B00084B58F7DFBCF8091B0008F778093B000A6
:1001C00008958091B0008F7DF9CF1F93CF93DF9377
:1001D000282F30E0F901E35FFE4F8491F901E750E9
:1001E000FF4FD491F901EB51FF4FC491CC23A9F0FB
:1001F000162F81110E94BC00EC2FF0E0EE0FFF1FC4
:10020000E552FF4FA591B4918FB7F894EC9111117D
:1002100008C0D095DE23DC938FBFDF91CF911F9173
:100220000895DE2BF8CFCF93DF9390E0FC01E750E9
:10023000FF4F24918B519F4FFC0184918823D1F073
:1002400090E0880F991FFC01EF52FF4FA591B491E8
:10025000FC01E552FF4FC591D49161110EC09FB7CB
:10026000F8948C91E22FE0958E238C932881E223E1
:10027000E8839FBFDF91CF9108958FB7F894EC91F9
:10028000E22BEC938FBFF6CF1F93CF93DF93182F02
:10029000EB0161E00E941301209739F460E0812FA7
:1002A000DF91CF911F910C94E500CF3FD10511F460
:1002B00061E0F5CFE12FF0E0E35FFE4FE491E33042
:1002C00031F140F4E130B1F0E230E1F0C038D10575
:1002D0007CF7E4CFE73029F1E83059F1E430B1F7A9
:1002E00080918000806280938000D0938B00C093C7
:1002F0008A0004C084B5806884BDC7BDDF91CF91FA
:100300001F91089584B5806284BDC8BDF7CF8091E8
:100310008000806880938000D0938900C09388001B
:10032000EDCF8091B00080688093B000C093B3009F
:10033000E5CF8091B00080628093B000C093B4009C
:10034000DDCF3FB7F89480911B0190911C01A091E3
:100350001D01B0911E0126B5A89B05C02F3F19F0C5
:100360000196A11DB11D3FBFBA2FA92F982F882735
:10037000BC01CD01620F711D811D911D42E0660F10
:10038000771F881F991F4A95D1F708958F929F92E2
:10039000AF92BF92CF92DF92EF92FF924B015C013E
:1003A0000E94A1016B017C010E94A1016C197D09D1
:1003B0008E099F09683E734081059105A8F321E0ED
:1003C000821A9108A108B10888EEC80E83E0D81EF1
:1003D000E11CF11C81149104A104B10429F7FF90E0
:1003E000EF90DF90CF90BF90AF909F908F90089547
:1003F000AF92BF92CF92DF92EF92FF920F931F9333
:10040000CF93DF936C017B018B01040F151FEB0170
:100410005E01AE18BF08C017D10759F06991D60127
:10042000ED91FC910190F081E02DC6010995892B99
:1004300079F7C501DF91CF911F910F91FF90EF9058
:10044000DF90CF90BF90AF900895FC01538D448D05
:10045000252F30E0842F90E0821B930B541710F06F
:10046000CF96089501970895FC01918D828D98177C
:1004700061F0A28DAE0FBF2FB11D5D968C91928D54
:100480009F5F9F73928F90E008958FEF9FEF089585
:10049000FC01918D828D981731F0828DE80FF11D4E
:1004A000858D90E008958FEF9FEF0895FC01918D69
:1004B000228D892F90E0805C9F4F821B91098F7362
:1004C000992708958FE191E00E94560221E0892B3F
:1004D00009F420E0822F089580E090E0892B29F034
:1004E0000E94620281110C9400000895FC01A48D09
:1004F000A80FB92FB11DA35ABF4F2C91848D90E046
:1005000001968F739927848FA689B7892C93A08928
:10051000B1898C91837080648C93938D848D9813B2
:1005200006C00288F389E02D80818F7D8083089545
:10053000EF92FF920F931F93CF93DF93EC0181E033
:10054000888F9B8D8C8D98131AC0E889F9898081DA
:1005500085FF15C09FB7F894EE89FF896083E8890D
:10056000F98980818370806480839FBF81E090E0FF
:10057000DF91CF911F910F91FF90EF900895F62E8C
:100580000B8D10E00F5F1F4F0F731127E02E8C8D26
:100590008E110CC00FB607FCFACFE889F98980816B
:1005A00085FFF5CFCE010E947602F1CFEB8DEC0FE7
:1005B000FD2FF11DE35AFF4FF0829FB7F8940B8F88
:1005C000EA89FB8980818062CFCF0F931F93CF93FD
:1005D000DF938C01D0E0C0E0F801EC0FFD1F6491C7
:1005E000662341F08FE191E00E949802892B11F07F
:1005F0002196F2CF42E050E062E171E08FE191E0BC
:100600000E94F8018C0F9D1FDF91CF911F910F91D8
:100610000895CF93DF93EC01888D8823B9F0AA89E0
:10062000BB89E889F9898C9185FD03C0808186FDAD
:100630000DC00FB607FCF7CF8C9185FFF2CF8081FC
:1006400085FFEDCFCE010E947602E9CFDF91CF91F9
:1006500008951F920F920FB60F9211242F933F937C
:100660008F939F93AF93BF9380911701909118013F
:10067000A0911901B0911A013091160123E0230FC6
:100680002D3758F50196A11DB11D209316018093B9
:10069000170190931801A0931901B0931A0180914A
:1006A0001B0190911C01A0911D01B0911E010196AA
:1006B000A11DB11D80931B0190931C01A0931D01EE
:1006C000B0931E01BF91AF919F918F913F912F9158
:1006D0000F900FBE0F901F90189526E8230F0296DB
:1006E000A11DB11DD2CF1F920F920FB60F921124F0
:1006F0002F933F934F935F936F937F938F939F932A
:10070000AF93BF93EF93FF938FE191E00E94760246
:10071000FF91EF91BF91AF919F918F917F916F91D9
:100720005F914F913F912F910F900FBE0F901F90AF
:1007300018951F920F920FB60F9211242F938F933B
:100740009F93EF93FF93E0912F01F091300180810F
:10075000E0913501F091360182FD1BC090818091BE
:1007600038018F5F8F7320913901821741F0E0913A
:100770003801F0E0E15EFE4F958F80933801FF91E4
:10078000EF919F918F912F910F900FBE0F901F901F
:1007900018958081F4CFEFE1F1E01382128288EEA8
:1007A00093E0A0E0B0E084839583A683B78384E0E0
:1007B00091E09183808385EC90E09587848784EC39
:1007C00090E09787868780EC90E0918B808B81EC1E
:1007D00090E0938B828B82EC90E0958B848B86ECFF
:1007E00090E0978B868B118E128E138E148EECEB0D
:1007F000F1E08BE0808386E0818383E0828380E187
:1008000083830895789484B5826084BD84B58160C3
:1008100084BD85B5826085BD85B5816085BD8091CB
:100820006E00816080936E00109281008091810043
:10083000826080938100809181008160809381003B
:10084000809180008160809380008091B1008460FD
:100850008093B1008091B00081608093B00080915E
:100860007A00846080937A0080917A00826080931D
:100870007A0080917A00816080937A0080917A007A
:10088000806880937A001092C100E0912F01F0916E
:10089000300182E08083E0912B01F0912C011082E5
:1008A000E0912D01F0912E0180E1808310923701BB
:1008B000E0913301F091340186E08083E0913101D1
:1008C000F0913201808180618083E0913101F0916B
:1008D0003201808188608083E0913101F0913201A2
:1008E000808180688083E0913101F09132018081C4
:1008F0008F7D808385E790E00E94E50261E0809132
:10090000BC010E94130161E08091BD010E941301AE
:1009100061E08091BE010E94130160E08091BF01FF
:100920000E94130170E060E08091BC010E944401CC
:1009300070E060E08091BD010E94440161E080911F
:10094000BE010E94E50088E690E00E94E502C0E05A
:10095000D0E087EC90E00E94E50261E08091BE016A
:100960000E94E50068EC70E08091BC010E944401A7
:1009700070E060E08091BD010E94440160ED77E08D
:1009800080E090E00E94C60181EC90E00E94E502C8
:100990006FEF70E08091BC010E9444016FEF70E046
:1009A0008091BD010E94440168EE73E080E090E018
:1009B0000E94C60189EB90E00E94E50261E080910F
:1009C000BE010E94E50070E060E08091BC010E94E1
:1009D000440168EC70E08091BD010E94440160ED2B
:1009E00077E080E090E00E94C60183EB90E00E94F7
:1009F000E5026FEF70E08091BC010E9444016FEF4F
:100A000070E08091BD010E94440168EE73E080E0D7
:100A100090E00E94C6012091BF0130E0F901E35F40
:100A2000FE4F8491F901E750FF4F0491F901EB511A
:100A3000FF4F14911123C9F081110E94BC00E12FD6
:100A4000F0E0EE0FFF1FEA56FF4FA591B491EC9135
:100A50000E2359F0209709F47CCF0E94620288236C
:100A600009F477CF0E94000074CF80EA90E00E94E2
:100A7000E50260E08091BE010E94E500FFCFEE0F2D
:0E0A8000FF1F0590F491E02D0994F894FFCF2C
:100A8E00000000009802F801250209035602340204
:060A9E0048020D0A0000F1
:00000001FF
