:100000000C9462000C94670B0C94400B0C948A00C7
:100010000C948A000C948A000C948A000C948A0038
:100020000C948A000C948A000C948A000C948A0028
:100030000C948A000C948A000C948A000C948A0018
:100040000C94F60A0C948A000C94B40B0C948E0B4E
:100050000C948A000C948A000C948A000C948A00F8
:100060000C948A000C948A000000000024002700F1
:100070002A0000000000250028002B0000000000DE
:1000800023002600290004040404040404040202DA
:100090000202020203030303030301020408102007
:1000A0004080010204081020010204081020000012
:1000B0000008000201000003040700000000000027
:1000C0000000E60B11241FBECFEFD8E0DEBFCDBF8E
:1000D00012E0A0E0B1E0E4ECF1E202C005900D9284
:1000E000AA36B107D9F723E0AAE6B2E001C01D9213
:1000F000A03AB207E1F710E0C2E6D0E004C02197D1
:10010000FE010E94D510C136D107C9F70E94700CBC
:100110000C94E0100C940000E0917303F0917403D0
:10012000F89421813281438154817894A4E6B0E02F
:100130000E946A1020917B0330917C0340917D03E3
:1001400050917E030E944B10253608F024E68091E2
:10015000790390917A038230910569F4809182034A
:10016000820F9927991F8536910514F084E690E057
:100170008093820308950397E9F780918203821B9D
:10018000990B97FFF0CF80E0F3CFE1E7F3E04285F2
:10019000938524853585868584278327822789272B
:1001A000978589270895833081F028F4813099F06C
:1001B0008230A9F008958730A9F08830C9F08430E2
:1001C000B1F4809180008F7D03C0809180008F7793
:1001D00080938000089584B58F7784BD089584B599
:1001E0008F7DFBCF8091B0008F778093B000089512
:1001F0008091B0008F7DF9CFCF93DF93282F30E02F
:10020000F901E255FF4F8491F901E656FF4FD49171
:10021000F901EA57FF4FC491CC23A1F081110E944C
:10022000D300EC2FF0E0EE0FFF1FE458FF4FA59135
:10023000B491EC91ED2381E090E009F480E0DF914E
:10024000CF91089580E090E0FACF1F93CF93DF9392
:10025000282F30E0F901E255FF4F8491F901E6566D
:10026000FF4FD491F901EA57FF4FC491CC23A9F075
:10027000162F81110E94D300EC2FF0E0EE0FFF1F2C
:10028000EE58FF4FA591B4918FB7F894EC911111EE
:1002900008C0D095DE23DC938FBFDF91CF911F91F3
:1002A0000895DE2BF8CFCF93DF9390E0FC01E65664
:1002B000FF4F24918A579F4FFC0184918823C9F0F6
:1002C00090E0880F991FFC01E859FF4FA591B49168
:1002D000FC01EE58FF4FC591D49161110DC09FB73D
:1002E000F8948C91209582238C93888128232883ED
:1002F0009FBFDF91CF910895623051F49FB7F8947A
:100300003C91822F809583238C93E8812E2BEFCF15
:100310008FB7F894EC912E2B2C938FBFEACF1F93BD
:10032000CF93DF93182FEB0161E00E9453012097D8
:1003300039F460E0812FDF91CF911F910C9425015A
:10034000CF3FD10511F461E0F5CFE12FF0E0E255A8
:10035000FF4FE491E33031F140F4E130B1F0E230AD
:10036000E1F0C038D1057CF7E4CFE73029F1E8307F
:1003700059F1E430B1F78091800080628093800071
:10038000D0938B00C0938A0004C084B5806884BD7C
:10039000C7BDDF91CF911F91089584B5806284BD60
:1003A000C8BDF7CF80918000806880938000D09393
:1003B0008900C0938800EDCF8091B0008068809361
:1003C000B000C093B300E5CF8091B000806280930D
:1003D000B000C093B400DDCF3FB7F894809197028E
:1003E00090919802A0919902B0919A0226B5A89B8B
:1003F00005C02F3F19F00196A11DB11D3FBFBA2FB7
:10040000A92F982F8827BC01CD01620F711D811D76
:10041000911D42E0660F771F881F991F4A95D1F7FB
:1004200008958F929F92AF92BF92CF92DF92EF92F8
:10043000FF924B015C010E94EC016B017C010E9468
:10044000EC016C197D098E099F09683E7340810596
:100450009105A8F321E0821A9108A108B10888EE5D
:10046000C80E83E0D81EE11CF11C81149104A10484
:10047000B10429F7FF90EF90DF90CF90BF90AF903D
:100480009F908F9008952FB7F89460919302709188
:10049000940280919502909196022FBF0895AF9299
:1004A000BF92CF92DF92EF92FF920F931F93CF9361
:1004B000DF93D09054038091570390915803A091FB
:1004C0005903B0915A03892B8A2B8B2BD9F00E94A8
:1004D000EC010091B3021091B4022091B502309169
:1004E000B602601B710B820B930B009157031091A6
:1004F00058032091590330915A03601771078207FE
:100500009307C8F20E94EC016093B3027093B402A7
:100510008093B5029093B602E0915F03F09160037F
:10052000309759F040915B0350915C0360915D03FB
:1005300070915E038D2D0995D82EC091B102D09196
:10054000B20281EAE82E82E0F82E8701209749F175
:1005500082E0013B180729F18D858823F1F0E881BD
:10056000F981A284B3840680F781E02DCE0109953C
:10057000BC01CE01F5010995F8019183808380913A
:100580005503909156038436910508F41C860C801F
:10059000DD81C02D0E5F1F4FD9CFF801118210826F
:1005A000EECFC091B102D091B20208E010E02097E6
:1005B000A9F08D85882361F04E855F856A817B81F6
:1005C000E881F9810280F381E02D2D2DCE0109957E
:1005D0000C80DD81C02D0150110949F7C091B10295
:1005E000D091B2022097C9F0F1EBEF16F2E0FF06CE
:1005F000A1F08D85882351F0F70160817181E88138
:10060000F9810484F585E02DCE0109950C80DD810A
:10061000C02DF2E0EF0EF11CE5CF80919F0290918A
:10062000A002EC012196D093A002C0939F024997AB
:10063000E4F10E94430200919B0210919C022091E0
:100640009D0230919E026B017C01C01AD10AE20A20
:10065000F30AA7019601211531054105510521F441
:1006600021E030E040E050E088EE93E0C89FB00128
:10067000C99F700DD89F700D1124072E000C880B98
:10068000990B0E94751030935603209355031092D6
:10069000A00210929F020E94430260939B027093FB
:1006A0009C0280939D0290939E02DF91CF911F91B7
:1006B0000F91FF90EF90DF90CF90BF90AF90089593
:1006C0000F931F93CF93DF93F894FC0145815681DC
:1006D000678170857894452B462B472BA9F0EC0158
:1006E0000E944302F8940D811E812F8138857894F1
:1006F000AB01BC01401B510B620B730B81E04D320F
:1007000051406105710508F480E0DF91CF911F91A0
:100710000F91089580E991E008950895AF92BF92F6
:10072000CF92DF92EF92FF920F931F93CF93DF93BD
:100730006C017B018B01040F151FEB015E01AE18EC
:10074000BF08C017D10759F06991D601ED91FC910E
:100750000190F081E02DC6010995892B79F7C5013B
:10076000DF91CF911F910F91FF90EF90DF90CF908D
:10077000BF90AF900895FC01538D448D252F30E03C
:10078000842F90E0821B930B541710F0CF9608959E
:1007900001970895FC01918D828D981761F0A28DCB
:1007A000AE0FBF2FB11D5D968C91928D9F5F9F7391
:1007B000928F90E008958FEF9FEF0895FC01918D47
:1007C000828D981731F0828DE80FF11D858D90E0B4
:1007D00008958FEF9FEF0895FC01918D228D892F51
:1007E00090E0805C9F4F821B91098F739927089539
:1007F00087EB92E00E94EC0321E0892B09F420E0D2
:10080000822F089580E090E0892B29F00E94F80360
:1008100081110C9400000895FC01A48DA80FB92F3C
:10082000B11DA35ABF4F2C91848D90E001968F7318
:100830009927848FA689B7892C93A089B1898C9137
:10084000837080648C93938D848D981306C0028886
:10085000F389E02D80818F7D80830895EF92FF9250
:100860000F931F93CF93DF93EC0181E0888F9B8DD3
:100870008C8D98131AC0E889F989808185FF15C08D
:100880009FB7F894EE89FF896083E889F9898081B0
:100890008370806480839FBF81E090E0DF91CF917F
:1008A0001F910F91FF90EF900895F62E0B8D10E0A1
:1008B0000F5F1F4F0F731127E02E8C8D8E110CC010
:1008C0000FB607FCFACFE889F989808185FFF5CF5B
:1008D000CE010E940C04F1CFEB8DEC0FFD2FF11D2A
:1008E000E35AFF4FF0829FB7F8940B8FEA89FB8998
:1008F00080818062CFCFCF93DF93EC01888D8823F6
:10090000B9F0AA89BB89E889F9898C9185FD03C072
:10091000808186FD0DC00FB607FCF7CF8C9185FF57
:10092000F2CF808185FFEDCFCE010E940C04E9CF8C
:10093000DF91CF910895AF92BF92CF92DF92EF9265
:10094000FF920F931F93CF93DF9300D01F92CDB7E9
:10095000DEB75A0119821A821B82882361F18B014A
:10096000E1E0F0E0E82EF12CD8012D918D01222359
:10097000F1F06F01B1E0CB1AD108D501AC0DBD1D6E
:100980004C914423A1F030E02F5F3F4FD7010E94EC
:100990009710A42FB0E011969B01AC010E946A1041
:1009A000A1E0B0E0AC0FBD1FAC0DBD1D8C93319626
:1009B000E430F105C9F669817A818B810F900F903F
:1009C0000F90DF91CF911F910F91FF90EF90DF90EB
:1009D000CF90BF90AF90089581E090E00895CF93BD
:1009E000DF93EC016FEF70E088810E948F016FEF61
:1009F00070E08981DF91CF910C948F011F93CF9389
:100A0000DF93EC01162F61E08A810E94250170E0DE
:100A100060E088810E948F01612F70E08981DF9101
:100A2000CF911F910C948F011F93CF93DF93EC0113
:100A3000162F61E08A810E942501612F70E0888174
:100A40000E948F0170E060E08981DF91CF911F915A
:100A50000C948F01CF93DF93C3E9D3E089819A810E
:100A6000AB81BC810196A11DB11D89839A83AB83A3
:100A7000BC830E9443026D837E838F839887DF91BE
:100A8000CF9108950F931F93CF93DF9320916B0223
:100A90002F5F322F377030936B0220FF2BC020E87E
:100AA00031FD2064347009F02062205FFC01EC010C
:100AB000239600E011E06785662329F070E0C80105
:100AC0000E94A6106F5F6187822F869F080E80E0CC
:100AD000811D1124811110C01682662311F061500E
:100AE00061873196EC17FD0731F7DF91CF911F91A8
:100AF0000F91089520E0D4CF81508683EECF4F929E
:100B00005F927F928F929F92AF92BF92CF92DF922D
:100B1000EF92FF920F931F93CF93DF932C01EB0182
:100B20000E94EC01F20126893789621B730B6A303F
:100B30007105B0F3F8948A819B81181619060CF0A0
:100B4000CDC1E881F9816BB1862E689485F83BB1FF
:100B50003F7D3BB9DA848F812D2D281B822F2F8377
:100B60004C85042E000C550BAA81BB817889FF842B
:100B7000E9887F5FF394E3949E819884B984AB8481
:100B80001181C12C6C2D0C2D2C2D218111278894C5
:100B90002111280F08F42FEF8195889470FD120F12
:100BA0001795889471FD120F1795889472FD120F96
:100BB0001795889473FD120F1795889474FD120F82
:100BC0001795889475FD120F1795889476FD120F6E
:100BD0001795889477FD120F17958894622F7111DD
:100BE000612F8D0D162F002C8BB800C017FF3BB95D
:100BF00020816627889400C000C0002C3BB92111D9
:100C0000290F00C0002C8BB800C016FF3BB908F4B8
:100C10002FEF9195889400C000C0002C3BB9F0FCE8
:100C2000620F00C0002C8BB800C015FF3BB9679560
:100C30008894F1FC620F00C000C0002C3BB967959E
:100C4000889400C0002C8BB800C014FF3BB9F2FCA4
:100C5000620F6795889400C000C0002C3BB9F3FC7C
:100C6000620F00C0002C8BB800C013FF3BB9679522
:100C70008894F4FC620F00C000C0002C3BB967955B
:100C8000889400C0002C8BB800C012FF3BB9F5FC63
:100C9000620F6795889400C000C0002C3BB9F6FC39
:100CA000620F00C0002C8BB800C011FF3BB96795E4
:100CB0008894F7FC620F00C000C0002C3BB9679518
:100CC000889400C0002C8BB800C010FF3BB9122FD5
:100CD000F110162F9B0D00C000C0002C3BB900C0C6
:100CE00000C0002C8BB800C017FF3BB922816627DB
:100CF000889400C000C0002C3BB92111290D00C010
:100D0000002C8BB800C016FF3BB908F42FEFE40F9E
:100D1000F51F00C000C0002C3BB9E0FC620F00C012
:100D2000002C8BB800C015FF3BB967958894E1FC97
:100D3000620F00C000C0002C3BB96795889400C0CA
:100D4000002C8BB800C014FF3BB9E2FC620F679522
:100D5000889400C000C0002C3BB9E3FC620F00C0C7
:100D6000002C8BB800C013FF3BB967958894E4FC56
:100D7000620F00C000C0002C3BB96795889400C08A
:100D8000002C8BB800C012FF3BB9E5FC620F6795E1
:100D9000889400C000C0002C3BB9E6FC620F00C084
:100DA000002C8BB800C011FF3BB967958894E7FC15
:100DB000620F00C000C0002C3BB96795889400C04A
:100DC000002C8BB800C010FF3BB9122FE110162F7A
:100DD000919400C000C0002C3BB99A0C00C000C028
:100DE0008BB800C017FF3BB921816627889400C0EB
:100DF00000C0002C3BB92111280F00C0002C8BB87B
:100E000000C016FF3BB908F42FEF8195889400C00D
:100E100000C0002C3BB970FD620F00C0002C8BB8E5
:100E200000C015FF3BB96795889471FD620F00C043
:100E300000C0002C3BB96795889400C0002C8BB88B
:100E400000C014FF3BB972FD620F6795889400C023
:100E500000C0002C3BB973FD620F00C0002C8BB8A2
:100E600000C013FF3BB96795889474FD620F00C002
:100E700000C0002C3BB96795889400C0002C8BB84B
:100E800000C012FF3BB975FD620F6795889400C0E2
:100E900000C0002C3BB976FD620F00C0002C8BB85F
:100EA00000C011FF3BB96795889477FD620F00C0C1
:100EB00000C0002C3BB96795889400C0002C8BB80B
:100EC00000C010FF3BB9122F7111162F8D0D00C0FD
:100ED00000C0002C3BB9119709F086CEEA81FB8156
:100EE0002EE130E0DF010E94BA1030E020E0A901DD
:100EF000AAE9EA9F0E0E411DFA9F400D511D1124D3
:100F00004F0F511DDC01CB01840F951FA11DB11D99
:100F1000893E43E09407A105B10508F434C0885E1A
:100F20009340A109B10942E0B695A7959795879599
:100F30004A95D1F747E0849F080E211D949F200D0C
:100F4000311D1124290F311D60916A0270E0860F56
:100F5000971F820F931F40919302509194026091CA
:100F6000950270919602292F3327420F531F611D5E
:100F7000711D409393025093940260939502709375
:100F8000960280936A0278940E94EC01F201778BBA
:100F9000668BDF91CF911F910F91FF90EF90DF90C3
:100FA000CF90BF90AF909F908F907F905F904F9029
:100FB0000895559A08956F927F928F92CF92DF9203
:100FC000EF92FF920F931F93CF93DF93CDB7DEB7CE
:100FD00062970FB6F894DEBF0FBECDBF8C016B01D8
:100FE0007A01822FA801475F5F4FB8016A5F7F4F88
:100FF0000E949B043B01882ED8011C962C91C701AE
:10100000F7FE04C0882799278E199F09DA82C982C2
:101010009C838B839E838D83688A798A8A8A213018
:1010200049F5CE0101960E94420583E08D871F8617
:101030001E86F7FE02C08DEF8D87D801ED91FC91E1
:101040000088F189E02DBE016F5F7F4FC8010995CF
:1010500062960FB6F894DEBF0FBECDBFDF91CF9181
:101060001F910F91FF90EF90DF90CF908F907F9026
:101070006F9008951C861B861A86198618861F8213
:10108000D4CFCF92DF92EF92FF920F931F93CF9323
:10109000DF93CDB7DEB762970FB6F894DEBF0FBE11
:1010A000CDBF8C016B017A01822FA801475F5F4F92
:1010B000B8016A5F7F4F0E949B049B01482FD801B3
:1010C0001C968C91DA82C982FC82EB82FE82ED82D0
:1010D000288B398B4A8B813009F5CE0101960E940D
:1010E00042051D861F861E86D801ED91FC91008861
:1010F000F189E02DBE016F5F7F4FC80109956296AF
:101100000FB6F894DEBF0FBECDBFDF91CF911F9118
:101110000F91FF90EF90DF90CF9008951C861B8673
:101120001A86198618861F82DCCF08950F931F93A5
:10113000CF93DF93EC018C85882391F10E944302C9
:101140000C811D812E813F81AB01BC01401B510BE5
:10115000620B730B8A859B85B0E0A0E048175907A6
:101160006A077B07A0F08B8191E089278B83882316
:1011700099F08D859E85AF8588839983AA830E9487
:101180004F020E9443026C837D838E839F83DF9195
:10119000CF911F910F910895188219821A82EFCF73
:1011A000888599851816190694F70E9443020C81C8
:1011B0001D812E813F81AB01BC01401B510B620B95
:1011C000730B8A859B85B0E0A0E0481759076A0732
:1011D0007B07E8F28B8191E089278B838823A1F03C
:1011E0008D859E85AF8588839983AA830E944F024F
:1011F0000E9443026C837D838E839F8388859985BB
:10120000019799878887C3CF188219821A82EECFF7
:10121000FC011486118610868FEF808385EA818316
:1012200012820C944F02CF93DF93EC0181E08C8704
:101230008FEF8D871E861F8684EF91E09B878A87BC
:101240000E9443026C837D838E839F83DF91CF91C5
:101250000895CF93DF93EC0181E08C871D8680E8B1
:101260008E871F8684EF91E09B878A870E944302C6
:101270006C837D838E839F83DF91CF9108958091CE
:101280008303811106C080917503909176030C94BD
:1012900008098091790390917A038130910539F0A2
:1012A00090F38230910519F1039739F108958091F7
:1012B0008203E0917503F09176039AEF980F9935C8
:1012C00048F01486118610868FEF80831182128277
:1012D0000C944F028D521486118610868B3020F4A8
:1012E000108280E88183F3CF8FEF8083FBCF8091E2
:1012F0007503909176030C94290980917503909160
:1013000076030C94130990E080E00895FC01648753
:101310000895FC01848590E00895FC0186859785F9
:101320000895CF93DF93EC01F89419821A821B82FF
:101330001C820E9443026D837E838F8398877894FA
:10134000DF91CF9108958F929F92AF92BF92EF92CB
:10135000FF920F931F93CF93DF93EC0188810E943C
:10136000FC008C01FF24F394892B09F4F12C1A82E0
:101370001B821C828981882309F449C0011511054B
:1013800019F50E9443026D837E838F8398871D86A3
:101390008E858F5F8E878D85811113C00E944302D9
:1013A0008D809E80AF80B884681979098A099B096D
:1013B000683B7B408105910520F081E08B838D8720
:1013C0001E868981882331F1EE8481E0E81213C002
:1013D0000E94430289849A84AB84BC846819790989
:1013E0008A099B09613971408105910520F0012B23
:1013F00011F0EA821E86F982DF91CF911F910F9141
:10140000FF90EF90BF90AF909F908F90089501153F
:10141000110509F201151105B9F20E94430269870D
:101420007A878B879C878D858111CECF0E9443025E
:101430008D809E80AF80B884681979098A099B09DC
:10144000623371058105910508F4BECF8E85823027
:1014500008F4BACF81E08C831E86B6CFFC010190E0
:101460000020E9F73197AF01481B590BBC0187EB0E
:1014700092E00C948E038F929F92AF92BF920F9343
:101480001F93CF93DF93CDB7DEB7A1970FB6F89434
:10149000DEBF0FBECDBF19A2423008F44AE08E0174
:1014A0000F5D1F4F842E912CB12CA12CA50194010E
:1014B0000E947510E62FB901CA01EA30F4F4E05D2C
:1014C000D801EE938D01232B242B252B79F790E067
:1014D00080E0109719F0CD010E942E0AA1960FB658
:1014E000F894DEBF0FBECDBFDF91CF911F910F915A
:1014F000BF90AF909F908F900895E95CE1CFCF931C
:10150000DF930E942E0AEC0180E491E00E942E0AF3
:101510008C0F9D1FDF91CF910895CF93DF93682F9C
:1015200070E090E080E04AE00E943B0AEC0180E439
:1015300091E00E942E0A8C0F9D1FDF91CF9108959C
:10154000DF92EF92FF920F931F93CF93DF937C0173
:101550008C01D0E0C0E0F801D1908F01CE010E9453
:101560003510D81621F06D2DCE010E943D10219628
:10157000C730D10581F7C701DF91CF911F910F913E
:10158000FF90EF90DF900895809171039091720326
:101590000E94EF0480917B0390917C03A0917D03D6
:1015A000B0917E03892B8A2B8B2B11F00E948C002B
:1015B00081E090E090937A03809379038091820395
:1015C00080937F030E94C500809381038BE793E0A3
:1015D0000E94A00A83E491E00E942E0A8091820377
:1015E0000E948D0A0C943F090E94DB101F920F92FB
:1015F0000FB60F9211242F933F938F939F93AF9326
:10160000BF938091930290919402A0919502B09122
:1016100096023091920223E0230F2D3758F5019660
:10162000A11DB11D20939202809393029093940286
:10163000A0939502B09396028091970290919802A0
:10164000A0919902B0919A020196A11DB11D8093BB
:10165000970290939802A0939902B0939A02BF9137
:10166000AF919F918F913F912F910F900FBE0F904F
:101670001F90189526E8230F0296A11DB11DD2CF09
:101680001F920F920FB60F9211242F933F934F93F7
:101690005F936F937F938F939F93AF93BF93EF93DA
:1016A000FF93E0910201F09103010995FF91EF9101
:1016B000BF91AF919F918F917F916F915F914F916A
:1016C0003F912F910F900FBE0F901F9018951F9272
:1016D0000F920FB60F9211242F933F934F935F9366
:1016E0006F937F938F939F93AF93BF93EF93FF93EA
:1016F000E0910001F09101010995FF91EF91BF91F7
:10170000AF919F918F917F916F915F914F913F9199
:101710002F910F900FBE0F901F9018951F920F9250
:101720000FB60F9211242F933F934F935F936F93B4
:101730007F938F939F93AF93BF93EF93FF9387EB29
:1017400092E00E940C04FF91EF91BF91AF919F91A5
:101750008F917F916F915F914F913F912F910F905A
:101760000FBE0F901F9018951F920F920FB60F92F9
:1017700011242F938F939F93EF93FF93E091C702D0
:10178000F091C8028081E091CD02F091CE0282FDFD
:101790001BC090818091D0028F5F8F732091D10206
:1017A000821741F0E091D002F0E0E954FD4F958FAF
:1017B0008093D002FF91EF919F918F912F910F9085
:1017C0000FBE0F901F9018958081F4CFCF93DF93B9
:1017D000E7EBF2E01382128288EE93E0A0E0B0E043
:1017E00084839583A683B78382E391E0918380838A
:1017F00085EC90E09587848784EC90E097878687D6
:1018000080EC90E0918B808B81EC90E0938B828BCD
:1018100082EC90E0958B848B86EC90E0978B868BA6
:10182000118E128E138E148EE4E5F3E08FEF808319
:1018300012821182148613868FEF9FEFDC0187835B
:101840009087A187B2871382148215821682CCE911
:10185000D3E08BE0888386E0898383E08A8380E11C
:101860008B8383E993E022E0FC01208311821282C2
:10187000138214821582168217821086E4E8F3E040
:1018800024E0208321E021831282138214821582B6
:101890001682178210861186128613861486158684
:1018A0001686A1E7B3E01196DC93CE9313969C9332
:1018B0008E93129781E693E015969C938E931497DE
:1018C0001796FC93EE93169719961C921E921897F2
:1018D00051961C92519752961C92DF91CF91089588
:1018E000CF93DF9300D000D000D01F92CDB7DEB7EA
:1018F000789484B5826084BD84B5816084BD85B5EB
:10190000826085BD85B5816085BD80916E008160F6
:1019100080936E001092810080918100826080939C
:10192000810080918100816080938100809180009E
:101930008160809380008091B10084608093B100C9
:101940008091B00081608093B00080917A008460C3
:1019500080937A0080917A00826080937A008091EF
:101960007A00816080937A0080917A008068809309
:101970007A001092C100E091C702F091C80282E0A3
:101980008083E091C302F091C4021082E091C5020D
:10199000F091C60280E180831092CF02E091CB02E9
:1019A000F091CC0286E08083E091C902F091CA02F6
:1019B000808180618083E091C902F091CA028081B8
:1019C00088608083E091C902F091CA0280818068BA
:1019D0008083E091C902F091CA0280818F7D80836B
:1019E00086E591E00E947F0A61E080919C030E945D
:1019F000530161E080919D030E94530161E0809159
:101A00009E030E94530160E080919F030E94530156
:101A100070E060E080919C030E948F0170E060E0C4
:101A200080919D030E948F0161E080919E030E943E
:101A3000250162E0809193030E9453018091860208
:101A4000811157C010927102109270028FEF809333
:101A5000740280937502809376028093770280935C
:101A600078028093790281E080937A0280937B02EE
:101A700010927D0210927C0280E797E190937F02A2
:101A800080937E0283E090E09093810280938002B5
:101A900010928302109282021092730210927202CC
:101AA0008091B1029091B202892B31F48EE692E0DE
:101AB0009093B2028093B102E0916C02F0916D02BA
:101AC000309721F08EE692E0958384838EE692E053
:101AD00090936D0280936C021092850210928402A2
:101AE0008CE191E090936F0280936E0281E080938D
:101AF0008602559A81E693E090937102809370027A
:101B000081E090E090937D0280937C028091570366
:101B100090915803A0915903B0915A03843C29E055
:101B20009207A105B10520F484EC99E0A0E0B0E0B3
:101B30008093570390935803A0935903B0935A038B
:101B400082E3809354031092640310926503109211
:101B50006603109267031092680310926A03109252
:101B6000690310926C0310926B0310926D038FEF58
:101B700080936E0380936F038093700310926103D0
:101B800010926203109263030E944F0262E0809100
:101B900084030E9453018AE295E0909301018093AF
:101BA0000001809169008C7F826080936900E89ACF
:101BB0005BE7E52E53E0F52E10E000E0C8010E943F
:101BC0003510F70181937F010F5F1F4F073011051B
:101BD000A9F7109181030E94C500181391C080914C
:101BE0008003882309F48CC081E080938303809173
:101BF0007F038093820381E090E090937A03809347
:101C0000790389E691E00E942E0A60917B0370912E
:101C10007C0380917D0390917E034AE00E943B0A01
:101C200080E491E00E942E0A83E891E00E942E0A4F
:101C3000809182030E948D0A0E943F0934E6E32EC0
:101C4000F12C9E012F5F3F4F690144E0242E312C7F
:101C500026E0422E512C7724739466246A9488ECF3
:101C6000882E912C90E0A92E90E0B92E80917703D8
:101C7000909178030E94A309809175039091760357
:101C80000E9496088091790390917A03E0917703FE
:101C9000F0917803009709F034C18381882309F417
:101CA000FFC030927A03209279038DEA91E00E947E
:101CB0007F0A0091750310917603F801748665869A
:101CC00066861786F386E2860E944302F8016483E3
:101CD0007583868397838FEB91E00E947F0A8091C2
:101CE000770390917803FC012281211114C00E9496
:101CF000A30980917503909176030E949608EFCF17
:101D00001092830310927A031092790383E991E091
:101D10000E947F0A91CF84ED91E00E947F0A80911A
:101D20007503909176030E9413098091730390913B
:101D300074030E94910962E3809171039091720390
:101D40000E94140580917503909176030E94960875
:101D500080917303909174030E946003882391F330
:101D600080917103909172030E94EF0482EE91E0E2
:101D70000E947F0A60ED77E080E090E00E9411020F
:101D800080917303909174030E9491098EEE91E00B
:101D90000E947F0A80917503909176030E94290921
:101DA00062E380917103909172030E94FE0480911E
:101DB0007503909176030E94960880917303909129
:101DC00074030E946003882391F3809171039091C2
:101DD00072030E94EF048AEF91E00E942E0AE091C4
:101DE0007303F0917403F89461817281838194810B
:101DF00078944AE00E943B0A80E491E00E942E0A17
:101E0000E0917303F0917403F89481819281A3812E
:101E1000B481789480937B0390937C03A0937D039B
:101E2000B0937E03F4E6F0937F03709280030E94E8
:101E3000C500809381038BE793E00E94A00A709213
:101E4000830324E62093820381E090E090937A0359
:101E50008093790380E192E00E947F0A00917503EC
:101E600010917603F80114861586168667865186CA
:101E70004086938682860E944302F80164837583BC
:101E80008683978373821082118262820E944F023E
:101E90006CED75E080E090E00E9411020E943F0925
:101EA0000E94430200918E0210918F0220919002B5
:101EB00030919102601B710B820B930B603D774058
:101EC0008105910590F083E692E00E942E0A8091B0
:101ED00082030E948D0A0E94430260938E027093D7
:101EE0008F028093900290939102A114B10409F49F
:101EF000BDCE0E94F803882309F4ADCE0E940000F5
:101F0000A7CE2481222339F00E94C40A8CE192E0FA
:101F10000E947F0AC5CF2381222399F087E0F60132
:101F200011928A95E9F7C6010E94A00A10928303D4
:101F300010927A031092790386E292E00E947F0A5F
:101F4000ADCF02972281222309F44BC0029718F4E7
:101F50000E94C40AA5CF8091820312E3823320F04D
:101F600010E0823309F014E690918303992309F479
:101F700097CF811709F494CF87E392E00E942E0A4D
:101F8000812F0E948D0A209182038091710390918C
:101F900072032117B0F422E030E030937A032093EB
:101FA000790364EB0E94FE0480917503909176039F
:101FB0000E94290980917303909174030E949109F2
:101FC0006FCFE3E0F0E0F0937A03E093790364EB02
:101FD0000E94140580917503909176030E94130965
:101FE000E9CF029708F05CCF80917B0390917C034E
:101FF000A0917D03B0917E03892B8A2B8B2B11F04E
:102000000E948C0080917303909174030E9460037E
:10201000882331F00E94C40A80E492E00E947F0A83
:10202000E0917103F091720383810E94FC00892B7F
:1020300009F036CF0E94C40A10927A0310927903F5
:102040000091750310917603F801748665861686F3
:102050001786F386E2860E944302F8016483758343
:102060008683978387E592E053CFF999FECF92BD9F
:1020700081BDF89A992780B50895262FF999FECF4A
:102080001FBA92BD81BD20BD0FB6F894FA9AF99A95
:102090000FBE01960895052E97FB1EF400940E9432
:1020A000621057FD07D00E94751007FC03D04EF454
:1020B0000C94621050954095309521953F4F4F4FAD
:1020C0005F4F089590958095709561957F4F8F4FE4
:1020D0009F4F08950E949710A59F900DB49F900D5B
:1020E000A49F800D911D11240895A1E21A2EAA1B10
:1020F000BB1BFD010DC0AA1FBB1FEE1FFF1FA217B8
:10210000B307E407F50720F0A21BB30BE40BF50BB4
:10211000661F771F881F991F1A9469F7609570953D
:10212000809590959B01AC01BD01CF010895A29FC0
:10213000B001B39FC001A39F700D811D1124911D9B
:10214000B29F700D811D1124911D089597FB072EDC
:1021500016F4009407D077FD09D00E94C11007FC47
:1021600005D03EF4909581959F4F089570956195A7
:102170007F4F08950E949710B7FF0895821B930B1D
:102180000895AA1BBB1B51E107C0AA1FBB1FA617BE
:10219000B70710F0A61BB70B881F991F5A95A9F710
:1021A00080959095BC01CD010895EE0FFF1F05901D
:1021B000F491E02D099481E090E0F8940C94E01003
:0421C000F894FFCFC1
:1021C4008D038D0300000000F40AF40AF40A8D095B
:1021D400EC04890986098309000000004108DB0733
:1021E400D9078D09EC04890986098A037F05000053
:1021F40000002E048E03BB037B04EC03CA03DE033E
:102204000D0A0044757264752E20506F7A697379D3
:102214006F6E3A2025004375727461696E4D6F6468
:10222400756C652076302E3500417961726C61726F
:102234002079756B6C656E6469212050756C7365CB
:102244003A2000536F6E20706F7A6973796F6E3A1B
:10225400202500454550524F4D20626F732120497F
:102264006E697420676572656B6C692E003D3D3D37
:1022740020494E4954204D4F4455203D3D3D004298
:1022840075746F6E6120626173202D3E204261730C
:102294006C6174004B6170616EC4B1796F722E2EE3
:1022A4002E0030252062756C756E647521004163C3
:1022B400696C69796F722E2E2E00313030252062C0
:1022C400756C756E6475212050756C73653A2000C9
:1022D4004B6179646564696C646921004163696C6C
:1022E400206475722100417961726C617220736996
:1022F4006C696E6469210048656465663A2025004E
:102304005374616C6C202D20486564656665207586
:102314006C6173746921004D6F746F72204841546D
:0A232400412100506F7A3A20250095
:00000001FF
